:020000040800F2
:10000000F8040020B9430008934300089543000812
:1000100097430008994300089B4300080000000034
:100020000000000000000000000000009D430008E8
:100030009F43000800000000A1430008A3430008FC
:10004000E5430008E9430008ED430008F1430008D8
:10005000F5430008F9430008FD4300080144000887
:1000600005440008094400080D4400081144000834
:1000700015440008194400081D44000821440008E4
:1000800025440008294400082D4400080000000011
:1000900000000000000000000000000031440008E3
:1000A00035440008394400083D4400084144000834
:1000B00045440008494400084D44000851440008E4
:1000C00055440008594400085D4400086144000894
:1000D00065440008694400086D4400080000000001
:1000E00071440008754400087944000800000000CD
:1000F0000000000000000000000000007D44000837
:10010000000000008144000885440008894400087C
:1001100000000000000000000000000000000000DF
:100120008D44000891440008954400089944000853
:100130009D440008000000000000000000000000D6
:10014000000000000000000000000000A1440008C2
:10015000A5440008A9440008AD440008B1440008C3
:10016000B5440008B9440008000000000000000089
:10017000000000000000000000000000000000007F
:1001800000000000BD440008000000000000000066
:10019000C14400082DE9F14FB0B0924604910DF131
:1001A00042013A9A2B9199464A7000200AE01AF8C7
:1001B000011B0498309A90470028049000F0B48600
:1001C0000D98401C0D909AF8000050B12528EED1F2
:1001D000002100220791089209910A920B910C923A
:1001E00004E00D9800F0A2BE41F001011AF8010FE1
:1001F0002028F9D023280CD02B2804D02D2805D076
:10020000302809D00BE041F00201EFE741F0040192
:10021000ECE741F00801E9E741F01001E6E72A28A0
:100220000FD1D9F8002052F8040BC9F8002000289B
:100230000F9003D540420F9041F004010AF1010AEA
:1002400014E00F92DFF824380AE00F98984205DA9C
:1002500000EB800402EB4402303A0F920AF1010AEB
:100260009AF80020A2F130000A28EED39AF8000094
:100270002E2803D04FF0FF320E9229E01AF8010F1A
:100280002A2809D1D9F8000050F8042BC9F8000039
:100290000E920AF1010A1BE02D280CBF0AF1010A97
:1002A000002000220E92DFF8C4470BE040B90E9AFE
:1002B000A24205DA02EB820503EB4503303B0E93C5
:1002C0000AF1010A9AF80030A3F130020A2AEDD3AC
:1002D000ADF84010DFF89807784400F294709AF86F
:1002E000001000F055FF08B11AF8010B8DF842001C
:1002F0009DF84200682805D19AF8000068280CD1C2
:10030000622106E06C2804BF9AF800006C2804D132
:1003100071218DF842100AF1010A12A806901AF80C
:1003200001BBBBF125012CD01C3900F0D081091F85
:10033000022940F2CC81133900F02185093900F0FF
:10034000C681891E00F0B685491E00F06385491EEE
:10035000022940F2BC81091F00F05C85491F00F0B2
:100360002881491E00F00B85491E00F0D080C91E6F
:100370000DD0891E00F00385C91E00F0008500F035
:10038000A4BD25238DF84830012100F0A9BDD9F87E
:10039000000050F8044BC9F80000002C059440F010
:1003A000A3802B994878002800F099804FF0FF3403
:1003B0000FF6803000F004FF201A40F0B58500F001
:1003C00090BD6D1E40F0A7853096079D12AF75B1A8
:1003D000309E17F8012B02A9304600F071FE00286C
:1003E00001D46D1EF5D10028309640F09D850A9D00
:1003F0003020002D8DF804000CDD309E012301AA71
:1004000002A9304600F06CFE002840F08D856D1E7C
:10041000F4D13096059F089D75B1309E17F8012BD9
:1004200002A9304600F04CFE002801D46D1EF5D123
:100430000028309640F078850B9D3020002D8DF8F7
:1004400004000CDD309E012301AA02A9304600F011
:1004500047FE002840F068856D1EF4D1309605985F
:100460000899099D471875B1309E17F8012B02A90C
:10047000304600F025FE002801D46D1EF5D100287D
:10048000309640F051850C9D3020002D8DF80400F1
:100490000CDD309E012301AA02A9304600F020FEA7
:1004A000002840F041856D1EF4D130969DF8400043
:1004B00041077FF588AE2020002C8DF804007FF7DF
:1004C00082AE309D012301AA02A9284600F008FE51
:1004D000002840F02985641EF4D1309573E60FF6AC
:1004E0006040059000F0FDBC0E9D002D04D5204617
:1004F00000F086FE044607E02A46204600F08AFE09
:10050000002814BF041B2C46089400F0EABCD9F85C
:10051000001051F8040BC9F8001020F0000400216D
:1005200021F0FF3512ABCDE902450593DDE9022349
:1005300006993C2413B90AB90E9898B102F00F0538
:100540003035641EEEB23A2EA8BF2735120942EAB2
:1005500003721B090D5508BF002A03D005980D1919
:10056000A842EBD308190590C4F13C020E980892FA
:1005700082420ADABDF84010821A4FF6EF7001404D
:100580000A92ADF8401000F0ACBC002840F1A984FC
:100590009DF8400000F01400102840F0A2840F9B4A
:1005A00007990A985B1A1B1A9A1A002A40F3998431
:1005B000E3E32B99487820B14FF0FF340FF6503029
:1005C000F8E69DF84200622861D0682817D06A28B2
:1005D0003FD06C2806D0712847D074282CD07A28B8
:1005E0001DD064E0D9F8001051F8040BC9F80010D0
:1005F000002868D14FF0FF340FF62C30DAE6D9F836
:10060000001051F8040BC9F8001020B94FF0FF3466
:100610000FF61430CEE60D99018000F062BCD9F8D7
:10062000001051F8040BC9F8001000284BD14FF00E
:10063000FF340FF6F420BDE6D9F8001051F8040B92
:10064000C9F8001000283ED14FF0FF340FF6D82033
:10065000B0E6D9F8001051F8040BC9F8001080B9C1
:100660004FF0FF340FF6C020A4E6D9F8001051F87F
:10067000040BC9F8001020B94FF0FF340FF6A82082
:1006800098E60D9AD317C0E9002300F02ABCD9F8E8
:10069000001051F8040BC9F8001020B94FF0FF34D6
:1006A0000FF6842086E60D99017000F01ABCD9F887
:1006B000001051F8040BC9F8001020B94FF0FF34B6
:1006C0000FF6642076E60D99016000F00ABCD9F8B7
:1006D0000020D21D22F00702C9F80020D2E9000153
:1006E0000832C9F80020CDE90201C80F02D00798EE
:1006F0002D210AE0BDF84000810702D507982B2183
:1007000003E0C00705D50798202112AA1154401C08
:10071000079012A807994BF020024318DDE9020167
:10072000CDE92C01612A059321AC0BD00E9800284D
:1007300002D506200E9005E001BF4BF0200067288F
:1007400001210E91DDE9020148004015401C0A46D6
:100750000DD109030BD0ABF1610503201A2D0890D0
:1007600002D20FF6E0110DE00FF6DC110AE070B9CD
:1007700012030CD1ABF1610503201A2D08901AD396
:100780000FF6CC110322184600F070FDA9E3DDE955
:100790000201CDE92E01DDE92E2323F00047B7F554
:1007A000801F22F000060DD20022002F08BF002E6D
:1007B000009203D116E00FF69411E3E76A4600F0C9
:1007C00061FD0FE0DFF8D808DFF8D81800EB17500C
:1007D0000090DDE92E234FF0FF301940DFF8C87894
:1007E00010403943CDE902014BF0200061280DD1C2
:1007F000059830210170821CBBF1610F05920CBF7E
:100800007821582141700798801C0790DDE902018A
:1008100020F0000231F0004308BF002A02D1002678
:10082000002567E14BF02008B8F1610F40F0B4807B
:100830000E98002847BF21210191401C0190019F83
:10084000DDE92C017F1C00220023DDE9024500F0D8
:1008500051FD00998DF8842038BF85F00045091FAF
:10086000002F00910DF1850653DD20462946002218
:10087000002300F057FD4CD24800400D00F11C034E
:1008800012D0002B10DD40F2FF70834206DBDFF850
:100890001C1805F000421143002011E06FF31E51B7
:1008A00041EA035120460BE024F0000035F00041FE
:1008B00008BF00280FBF29461C22294600F04AFD28
:1008C00004460D4600F0E4FDFF1F002F804609DDC1
:1008D00000F0FCFD02460B462046294600F008FECB
:1008E00004460D46F01D0721B8F1000F0CDD491E2E
:1008F0005EBF08F00F0200F8012D4FEA2818F3D56B
:1009000002E0002200F8012D491EFAD5C61D002F75
:10091000ABDC0DF18500361A01988642D8BF30460F
:1009200000280DF1850430D4B04206DA0DF18501BE
:100930000A5C082AA8BF0F2100DA0021024621AB79
:10094000134400E0401E13F80159521E8D42F9D0A5
:100950000F2904D10DF185018B5C5B1C8B54002A9F
:1009600004D50099091D21AC401C0091411E0CD4F6
:100970006218ABF13A0613783033DDB23A2DA8BFD6
:10098000F318491E02F80139F5D50E99002940F1F6
:10099000AF80421E0E92ABE00099DFF8142747F2B9
:1009A0009750414391FBF2F2DDE92C45009225F08E
:1009B0000045D2F1070204DD2046294600F04DFB38
:1009C0000BE052420020DFF8EC1600F046FB024636
:1009D0000B462046294600F0FDFD0446B8F1660F9F
:1009E0000E9806BF009F0A3706273F18142FC8BF6E
:1009F000142730200D468DF884000DF18506002F58
:100A000038DD2046294600F009FF01460A4606F176
:100A1000080304200A26B2FBF6F606EB860EA2EBCC
:100A20004E02303203F8012C0A22B6FBF2F202EB3E
:100A3000820EA6EB4E063036401E03F8026DE9D159
:100A4000083F002F03F10806D9DD084600F0FAFE42
:100A500002460B462046294600F04AFD0022DFF8F8
:100A6000583600F0FDFE04460D46CAE7CBCCCC0C50
:100A70006C3900000DF18500361A0DF1850404E093
:100A80000098401E761E0090641C20783028F7D015
:100A9000B8F1660F02D10099491C04E0B8F1650F66
:100AA0000CBF012100210E9808188642B8BF701EA5
:100AB00000281DD4B04204DA215C3429C8BF392192
:100AC00000DC30210246631E9D1800E0401E15F830
:100AD0000169521E8E42F9D0392902D1A15C491C0C
:100AE000A154002A04D50099491C1C46401C0091C1
:100AF0000646009D00F086FF406A0778DDF83880E2
:100B000030B2002802DC01260FF248644BF02000CE
:100B1000662808BF6D1C16D0672846D128B210F190
:100B2000040F48DB404546DA9DF840006D1C010784
:100B300003D430B24045B8BF804628B2B8EB0008B5
:100B400048BF4FF000080FFA85FBBBF1000F00F320
:100B5000B5800898411C0891302205990A54B8F1D3
:100B6000000F03DC9DF84000010704D50898411CE4
:100B7000089105990F5418EB0B0FB8BFC8F1000589
:100B80002DB268420B90A84432B29045B8BF464699
:100B9000059B089836B2099632462146184400F063
:100BA00065FBA8EB06000C90D2E0BBF1610F17D1FA
:100BB0004FF0700B19E030B2404504DA9DF8401058
:100BC0000A0758BF8046B8F1010848BF4FF0000837
:100BD000BBF1670F14BF4FF0450B4FF0650B04E0FE
:100BE000BBF1410F08BF4FF0500B0898411C089112
:100BF000B8F1000F059914F8012B0A5403DC9DF895
:100C0000400001071AD50898411C0891B8F1000F5F
:100C100005990F5412DD761E30B280450598089B69
:100C2000B8BF464632B22146184400F01FFB08996F
:100C300036B271180891A8EB06000B900598089938
:100C4000084429B2002980F800B003D42B22427056
:100C5000821C04E02D2242700D46821C6D42002150
:100C60002CAB28460AE004460A2094FBF0F000EB87
:100C70008005A4EB450403F8014B491C00B2002891
:100C8000F1DC012906DC4BF02000652804BF302090
:100C900002F8010B00292CAB08D1302002F8010B1F
:100CA00006E0491E585C303002F8010B0029F8DCE0
:100CB000059908980844121A099249E030B229B2FD
:100CC00088421CDA0598089B32B22146184400F08D
:100CD000CDFA089936B27118ABEB0606B8F1000FE1
:100CE00008910B9603DC9DF84000020704D5059897
:100CF00047540999491C0991CDF8308028E005989E
:100D0000089B2AB22146184400F0B0FA0898761BD6
:100D10005844B8F1000F089003DC9DF840100A0712
:100D200003D5411C089105990F5430B280450598B0
:100D3000089BB8BF464632B204EB0B01184400F0E2
:100D400095FA089836B230180890A8EB06000B9078
:100D50009DF8400000F01400102840F0C280079A6F
:100D600008990B988A18099982180C988A18821881
:100D70000F98824280F2B580821A0A92B1E09DF803
:100D80004200622808D068280ED06A2814D06C2847
:100D90001FD0712810D01CE0D9F8001051F8040BB6
:100DA000C9F80010C0B21AE0D9F8001051F8040BCD
:100DB000C9F8001080B212E0D9F80020D21D22F04C
:100DC0000702C9F80020D2E900010832C9F8002062
:100DD00006E0D9F8001051F8040BC9F80010002102
:100DE000CDE902019DF8400001075AD5DDE9022353
:100DF000002B08BF002A54D04BF02000782850D197
:100E0000079812A930220A54401C431C079301F88A
:100E100000B046E09DF84200622808D068280ED055
:100E20006A2814D06C281FD0712810D01CE0D9F883
:100E3000001051F8040BC9F8001040B21AE0D9F8BC
:100E4000001051F8040BC9F8001000B212E0D9F8F4
:100E50000020D21D22F00702C9F80020D2E90001CB
:100E60000832C9F8002006E0D9F8001051F8040B48
:100E7000C9F80010C117CDE90201002902D5079871
:100E80002D210AE0BDF84000810702D507982B21EB
:100E900003E0C00705D50798202112AA1154401C71
:100EA000079012A807990144059102A8594600F03D
:100EB0004FF816E001200790D9F8000050F8041B05
:100EC000C9F800008DF848100BE025210122BBF184
:100ED000000F8DF84810079203D08DF849B0022119
:100EE00007910F9A07980A990C9C121A0898521A9F
:100EF0000B99121A0998521A121A9DF84000141BE5
:100F000041073FF562AA2020002C8DF804007FF7EE
:100F10005CAA309E2546012301AA02A9304600F0B2
:100F2000DFF800283FF44DAA4FF0FF3031B0BDE8A4
:100F3000F08F00007072696E74665F733A206261B0
:100F40006420257320617267756D656E7400000002
:100F50002DE9FC4307466F293E6908BF082405D0E8
:100F600041F02000782814BF0A2410243C25D7E93A
:100F70000023642918BF69299046994605D1002BA2
:100F800003D5D8F1000869EB4909B9F1000F08BF92
:100F9000B8F1000F0CD1386B50B9082C39D197F843
:100FA0003800010735D530203B2586F83B0030E07E
:100FB0008DF80010404649462246E31700F026FD12
:100FC0003032D0B26D1E3A28019504DB9DF8000046
:100FD000A0F151018A187255404649462246E3174E
:100FE00000F014FD80465FEA010908BFB8F1000F68
:100FF00003D0F86871198842DCD3082C09D197F81E
:101000003800010705D5705D302802D06D1E3020F4
:101010007055C5F13C02BA617119F960386B8242B2
:1010200008DA821A3A624FF6EF70398F0140398739
:10103000BDE8F38300280ED597F8380000F01400BF
:10104000102808D17B6B7969386A5B1A1B1A9A1AC7
:10105000002AC8BF3A62BDE8F3832DE9D0430646B3
:101060000F4614464FF00008DFF8509012E0E007FA
:1010700007D542464B463046394600F0F1FB06465E
:101080000F464046494642464B4600F0E9FB641095
:1010900080468946002CEAD130463946BDE8D083E7
:1010A00002FCFFFFFFFF0F800000E03F0000F07F29
:1010B000A08601000000F03F84D797410000244043
:1010C00010B503460C461146A0689847A06020B1B1
:1010D000E06A401CE062002010BD4FF0FF3010BD00
:1010E000F8B505460E4617461C4600205CB117F8B9
:1010F000011BB068A847B06030B1F06A401CF062D4
:101100000020641EF3D1F2BD4FF0FF30F2BD0000AD
:101110007072696E74665F733A20256E206469731D
:10112000616C6C6F776564007072696E74663A20EA
:1011300062616420256E20617267756D656E740052
:10114000000000006E616E004E414E00696E660048
:10115000494E4600300030B4002513E050F8042B0F
:10116000D30744BFA9F101039A18091F042942F8C3
:10117000045BFAD213468C0744BF15809B1CC90739
:1011800048BF1D7050F8041B0029E7D130BC7047E0
:10119000C9B202788A421AB11CBF10F8012FF9E7D0
:1011A00018BF002070478268521C8260426832B1CA
:1011B0000268531C036011704168491E416070470A
:1011C00080B500B906A005490B681BB12222002199
:1011D000984701E000F09DFC222002BDF0000020B5
:1011E000636F6E73747261696E742068616E646C93
:1011F00065723A20626164206D6573736167650092
:1012000000F1010310F8011B11B110F8011BFBE7FD
:10121000C01A7047C9B2830706D0521E22D310F8F5
:10122000013B9942F7D11FE0083A13D302F10402BF
:1012300041EA012141EA014150F8043B121F21BF5C
:101240004B40A3F1013C2CEA030C1CF0803FF3D08F
:10125000C9B2001F083210F8013B521E28BF91EAA4
:10126000030FF8D818BF0120401E70474AB1000094
:1012700011F8013B521E00F8013B1CBF11F8013B65
:10128000F8E7704710B5144600F002F8226010BD70
:10129000C1F30A5343B14A0012F5001F28D2A3F24A
:1012A000FE32A1EB0251704750EA410C20D001F010
:1012B000004C31EA0C01B1FA81F204BFB0FA80F3BC
:1012C000D2180B3AB2F120032CBF00FA03F191407F
:1012D00041EA0C013EBFC2F1200C20FA0CF3194385
:1012E0009040524240F2FD33D21A01EB0351704755
:1012F000002270474FF4001C1CEB410F94BF1CEB05
:10130000430F09E041EA030C50EA4C0C52EA0C0C82
:1013100003D2994208BF9042704714BF8B42824269
:1013200070472E004FF4001C1CEB410F94BF1CEBC8
:10133000430F09E041EA030C50EA4C0C52EA0C0C52
:1013400003D28B4208BF8242704714BF9942904239
:1013500070470000124254D440F2FF7C1CEA115343
:101360000FD0634531D09B1863453CBF01EB025160
:10137000704701F0004141EA0C510020AFF30080BA
:10138000704750EA410320D001F0004C91EA0C0173
:101390001CD0B1FA81F30B3B9A420DD9D21A994075
:1013A00051EA0C01C3F1200C20FA0CFC6144984076
:1013B000531C40F2FF7CD7E7914041EA0C01C2F197
:1013C000200C20FA0CF3194390407047B0FA80F3D8
:1013D0001533202BE0D3202AEED3203A203B9A422B
:1013E00009D9D21A00FA03F141EA0C010020531C7A
:1013F00040F2FF7CB8E700FA02F141EA0C0100205C
:101400007047524240F2FF7C1CEA11530DD06345F5
:10141000DBD0B2EB030C3CBFA1EB025170470CF1E7
:10142000010221EA035141F4801150EA410CCCD071
:1014300001F0004C352A27DC30B481EA0C01B2F10E
:10144000200309DAC2F12003044601FA03F5D04073
:101450002843D1409C400CE0C3F12002450020FA13
:1014600003F418BF44F0010421FA03F091400C4347
:10147000002174F1004550F1000051EB0C012442B1
:1014800030BC7FF47BAF70476146002076E70000F8
:10149000C1F30A5340F2FE329B1A14DDD3F120034C
:1014A0004FEAE17208DDC90241EA505141F00040C3
:1014B000D84080185040704703F2E13010B1D24359
:1014C00082F000407047002070470000C11768B1EB
:1014D0004840401AB0FA80F29040D21CC907C2F5C9
:1014E000846241EA025202EBD021400570470000BD
:1014F00070B44FF0004591EA030F40F10D836B404B
:10150000841A71EB030603D2001BB1411219734117
:101510004FF4001C1CEB410F34BF7CEB430442E052
:101520000C0DA4EB1356352E4FDC45EAC323DB0A22
:1015300045EAC121C912B6F120050DDD63FA05F6B1
:10154000EB4086EA0305124218BF45F00105C018BA
:1015500051F100010CD213E062FA06F5F240554059
:10156000F3415A40B340F3405A408018594107D3E1
:1015700049085FEA30005FEA350528BF45F00105FC
:1015800001F58011420875F1004250F1000041EB75
:1015900004514E0016F5001F70BC38BF7047002084
:1015A000090D090570471CEB410F10D252EA4306A2
:1015B0000BD0BCEB410F05D80C0DAB43661E342E8F
:1015C000B6DD02E0AB438018594170BC704770BC77
:1015D00070470000F0B540F2FF7581EA030C0CF093
:1015E000004C15EA11541DBF15EA1357AC42AF4227
:1015F000E5E0BC41C1F31301C3F31303801A994121
:1016000043F4801304D2641E4000494180185941BC
:10161000C90241EA5051B1FBF3F603FB1611A2FBDC
:101620000675D7EBC020A94102D2761E8018594119
:10163000C90241EA5051B1FBF3FE03FB1E11A2FBAC
:101640000E75D7EBC020A94103D2AEF1010E801870
:101650005941890241EA9051760546EA8E2EB1FB46
:10166000F3F603FB1611A2FB0675D7EB8020A94108
:1016700002D2761E80185941C90241EA50514EEA01
:10168000060EB1FBF3F603FB1611A2FB0675D7EBB2
:10169000C020A94102D2761E80185941C90241EAF0
:1016A0005051B1FBF3F703FB1711A2FB0735D3EB46
:1016B000C020A94167F100070CBF004247F00107B5
:1016C00066F3D5274FEA1E31B80814F5806412DDA1
:1016D000BD0775F1004250EB0E5051EB045111F56E
:1016E000801F5CBF41EA0C01F0BD4CF07F6141F00E
:1016F000E0410020F0BDBD076D0840EA0E5041F406
:101700008011D4F10104B4F120060ADAC4F12006F4
:101710000200E04001FA06F3E1401843B2401543ED
:101720000EE0342C13DCC6F1200445EA40056D08B8
:1017300020FA06F2154321FA06F0A1400D430021DC
:1017400075F1004250F1000051EB0C01F0BD00209A
:101750005FEA0C01F0BDCFB992185B41B3FA83F791
:1017600004BFB2FA82F6BF190B3FB7F120062FBFB4
:1017700002FA06F3BB40C7F1200622FA06F638BF8C
:101780003343BA401CB1E419641E33E77F4231F0A1
:101790000041B1FA81F404BFB0FA80F6A4190B3C01
:1017A000B4F120062FBF00FA06F1A140C4F12006D3
:1017B00020FA06F638BF3143A0403C1B1AE7AC4282
:1017C0001ABF05EA1357AF4212E050EA41061CBFA8
:1017D00052EA4306BFE750EA4107304661461CBF64
:1017E00041EA0551F0BD52EA430C08BFC143F0BDC8
:1017F00000204FF4001616EB410F98BF16EB430F75
:1018000008BF16EB410F24BFC14305E016EB430FA1
:101810000CBF61464CEA0551F0BD0000400D49186F
:1018200040EA81200CD2490DA1F58061491C40F0AD
:10183000004005DBD1F11F0154BFC840C0177047FD
:1018400000207047014648B1B0FA80F18840C91CB9
:10185000C1F58461090501EBD02140057047000006
:10186000B0B581EA030C0CF0004C40F2FF7515EAAC
:1018700011541DBF15EA1357AC42AF4239E0E419C9
:1018800023EA455343F48013C90241F0004141EA81
:10189000505EC7021100A7FB020200284FF00000B3
:1018A000EEFB01204FF00001E3FB072118BF42F0DF
:1018B0000102401800214941E3FB0E01A4F58064B8
:1018C0000F0302D252004041494154F101046CDD42
:1018D000470872F1004250F1000051EB0451A1F5AC
:1018E00080115CBF41EA0C01B0BD4CEA05510020FB
:1018F000B0BD05EA1357AC4214BFAF4241E050EA15
:10190000410E1CBF52EA430E02E061460020B0BD0A
:1019100024423C441BD15FEA070EF6D0090302BF04
:1019200001460020AEF1140EB1FA81F7AEEB0704C8
:1019300001FA07FE0C37C7F1200100FA07F7C8408B
:101940004EEA000E23EA455343F48013A2E733F036
:101950000043B3FA83F704BFB2FA82FE77440B3F29
:10196000E41BB7F1200E2FBF02FA0EF3BB40C7F104
:10197000200E22FA0EFE38BF43EA0E03BA40641C62
:1019800082E750EA410E14BF52EA430E6FF00001A5
:101990004FF4001717EB430F8ABF194617EB410F9F
:1019A000B5E74CEA05510020B0BDD4F10104B4F113
:1019B00020070FDAC4F12007520828BF42F00102C5
:1019C00010FA07F501FA07F7E1BF2A43E040384370
:1019D000E1400FE0352C98DCC7F1200452EA4002C8
:1019E00020FA07F218BF42F0010231FA07F0A140D5
:1019F0000A43002172F1004250F1000051EB0C014A
:101A0000B0BD00000048704710000020D3BBD9B122
:101A1000B2F5803F5BD2022A1ED98C46B1FBF2F1AF
:101A200002FB11C31B0443EA1043B3FBF2FC02FBAD
:101A30001C3380B240EA0343B3FBF2F002FB1032E6
:101A400040EA0C4000237047022A05D98446B0FBC7
:101A5000F2F002FB10C270474AB105D100F001025A
:101A600049085FEA3000704700220023704700F009
:101A700009B90B000200002100207047F7D30022B3
:101A800000237047904271EB030CF2D370B5B1FAAA
:101A900081F4B3FA83F52C1BA340C4F1200532FA7C
:101AA00005F63343A2405FF00046E64002E05B08E3
:101AB0005FEA3202841A71EB030524BF20462946EF
:101AC0007641F4D302000B003000002170BD70B5E8
:101AD000B1FA81F4B2FA82F5C4F120046419B4F1C8
:101AE0002006DAD3B2405FF00044F440002502E063
:101AF00052085FEA3303C61A71EB020E24BF304668
:101B0000714664416D41F3D302000B0020002900AF
:101B100070BD012000F0B8B8841A71EB030604D23E
:101B20006E40001BB141121973414FF4001C1CEBB5
:101B3000410F34BF7CEB430683E00C0DA4EB13563E
:101B4000362E00F37C80012E45EAC32341DC43EAB4
:101B5000525312BFD20292025B08240545EAC1210A
:101B600041EA5051D2EBC020994125D407D1B0FAB7
:101B700080F610FA06F162D00020203608E0B1FAB3
:101B800081F6B140C6F1200220FA02F21143B040C2
:101B90004FEAF474B4EB465434F001064FEA74048F
:101BA0000AD8D6F50016760D04F00044F04061FA2C
:101BB00006F25040F1404840C00A40EA415021F04E
:101BC000004128BF5FEA500550F1000044EBD121ED
:101BD00035E0DB0A45EAC121C90AB6F120050EDD70
:101BE00042EA0242120CC5F1200603FA06F6EB4067
:101BF00042EA06056D42984161F100010DE062FA8A
:101C000006F5F240554063FA06FC82EA0C02F34006
:101C10005A406D42904161EB030111F4801F05D1E0
:101C2000641E620502D06D004041494121F48011DB
:101C3000430875F1004350F1000041EB045170BCC2
:101C400070471CEB410F15D223F0004352EA4306C4
:101C50000BD04FEA4C0CBCEB410F04D80C0D661EA8
:101C6000342EB7DDEBE7801A994150EA410608BFF0
:101C70000021E4E708BF1CEB430F28BF6FF0000111
:101C8000DDE700007047000080B5AFF30080024A36
:101C900011001820ABBEFBE72600020038B5040097
:101CA00001D1012032BD2068DFF8C016DFF8C05630
:101CB00088421CBFDFF8BC2690420BD0DFF8B81674
:101CC00088421CBFDFF8B426904203D04FF4A171C4
:101CD00000F056FB6068002818BFB0F5827F03D083
:101CE00040F2431100F04CFBA06800281CBFB0F587
:101CF000806FB0F5004F03D04FF4A27100F040FBAD
:101D0000E068B0F5006F18BF002803D040F245111D
:101D100000F036FBA069B0F5007F1CBF0028B0F5CD
:101D2000802F03D04FF4A37100F02AFBE069002854
:101D300018BF08280FD0102818BF18280BD020284B
:101D400018BF282807D0302818BF382803D040F201
:101D5000471100F015FB206A002818BF802803D027
:101D60004FF4A47100F00CFB606A38B1102833D036
:101D700040F2491100F004FB606A68BB206900284A
:101D800018BF022803D04FF4A67100F0F9FA606979
:101D9000002818BF012803D040F24D1100F0F0FADE
:101DA00000F0E0F915D1E069002818BF08282BD011
:101DB000102818BF182827D0202818BF282823D07B
:101DC000302818BF38281FD040F2511100F0D8FA3F
:101DD0001AE00020E06117E0E069002818BF082839
:101DE0000FD0102818BF18280BD0202818BF28287B
:101DF00007D0302818BF382803D040F25B1100F01C
:101E0000BFFA0020206160610020A06204F150054B
:101E1000687820B900212970204600F087FB00F087
:101E20003BF86068A168E26800F4827001F4044144
:101E30000843217C02F400621043227D01F002017C
:101E40000843A16902F001021043227F01F40071EE
:101E5000084394F8201002F038021043A26A01F0FF
:101E600080010843216802F4005210430860A06911
:101E700094F824102268000C00F0040001F0100116
:101E8000084350602068C16921F40061C1610020ED
:101E900068600121697032BD0220687020680168A5
:101EA00021F04001016070472DE9F8430446002607
:101EB000A068002818BFB0F5004F8946154698461F
:101EC00003D040F20A3100F04DFA04F1500738789F
:101ED000012808BF022000F0A7800120387000F020
:101EE0007BFB797801292A4618BF022655D1B9F122
:101EF000000F00D02B0000F0948003237B707E60E5
:101F0000C4F83090A586E586A663A687E687666452
:101F10002664A368B3F5004F09D121680B6823F04C
:101F200040030B6021680D6845F480450D60216811
:101F30000B685D0603D40B6843F040030B60E16857
:101F4000B1F5006F61682DD1002918BF012A09D1B0
:101F5000216B23680A88DA60216B8A1C2263E18E78
:101F60004A1EE286054608E0216B0A88C260206BA3
:101F7000811C2163E08E411EE186E08E00283DD069
:101F8000206881688A07EFD400F026FB401B40459B
:101F900004D318F1010FF0D0032643E0B8F1000F8D
:101FA000EBD1F9E7002918BF012A09D1216B236879
:101FB0000A781A73216B4A1C2263E18E4A1EE2865C
:101FC000054608E0216B0A780273206B411C2163EF
:101FD000E08E411EE186E08E80B1206881688A072C
:101FE000F0D400F0F9FA401B404503D318F1010F7B
:101FF000F1D0D1E7B8F1000FEDD1CDE72A46414647
:10200000204600F043FA08B120207860A06830B97B
:1020100000962168CA68009289680091009A7868E1
:1020200000B1012600F0A2F8BDE8F2832DE9F843E3
:10203000002604460D4600F095F804BFA06800286D
:102040009146984604F1500709D104267E70CDF8D8
:1020500000804B462A46204600F08EF880E0387813
:10206000012808BF02207BD00120387000F0B4FAAC
:102070007978012918BF022670D1002D18BFB9F157
:10208000000F6AD0042179707E60A563A4F83C90AB
:10209000A4F83E902663A686E68626646664A26857
:1020A000B2F5004F09D121680A6822F040020A60A7
:1020B00021680B6823F480430B6021680A6853068B
:1020C00003D40A6842F040020A600546E16800292C
:1020D00026D108E0007BA16B0870A06B421CA263B4
:1020E000E08F411EE187E08F68B320688168CA07EE
:1020F000F0D400F071FA401B404504D318F1010FF1
:10210000F1D003262AE0B8F1000FECD1F9E7C0685E
:10211000A16B0880A06B821CA263E08F411EE18747
:10212000E08F80B120688168CA07F0D400F054FACB
:10213000401B404503D318F1010FF1D0E1E7B8F19E
:10214000000FEDD1DDE72A464146204600F078F940
:1021500008B120207860786800B1012600F006F808
:10216000BDE8F2836068B0F5827F70470120787027
:1021700000213970304670472DE9FC4705468A46F4
:10218000A86891461C464FF00108002618B140F29D
:102190007E4100F0E7F805F150073878012808BFC4
:1021A000022000F0DD8087F8008000F015FA7A78D0
:1021B000012A234609D06968B1F5827F02BFA96868
:1021C0000029042A01D00226C5E0BAF1000F18BF89
:1021D000B9F1000F00D00CB90126BCE079780429D0
:1021E0001CBF052179707E60C5F83890EC87AC87FC
:1021F000C5F830A0EC86AC862E646E6429680C6845
:10220000620603D40C6844F040040C60E9680A9C40
:10221000B1F5006F696844D1002918BF012B09D1BD
:10222000296B2B680A88DA60296B8A1C2A63E98E7D
:102230004A1EEA868146E88E002804BFE88F0028FF
:1022400076D02968886882070FD5E88E002818BFE5
:10225000B8F1000F09D0286B0288CA60B046286B1D
:10226000811C2963E88E411EE98629688868C207B7
:102270000CD5E88F50B1C868A96B08804FF00108F1
:10228000A86B821CAA63E88F411EE98700F0A4F9BD
:10229000A0EB0900A042CED314F1010FCBD003264E
:1022A00059E0002918BF012B09D1296B2B680A7846
:1022B0001A73296B4A1C2A63E98E4A1EEA868146F4
:1022C000E88E002804BFE88F002831D0296888688C
:1022D00082070FD5E88E002818BFB8F1000F09D08B
:1022E000286B02780A73B046286B411C2963E88E7C
:1022F000411EE98629688868C2070CD5E88F50B16D
:10230000C868A96B08704FF00108A86B421CAA634B
:10231000E88F411EE98700F05FF9A0EB0900A042B9
:1023200003D314F1010FCBD0B9E7002CC8D1B6E725
:102330004A462146284600F0A9F818B12020012677
:10234000786008E0A86830B900962968CA680092E9
:10235000896800910098012179700020387030461A
:10236000BDE8F687DFF8080000F0B2BA003001409F
:102370004042000800380040003C0040003401406A
:10238000284600F0A5BA2DE9F843089C05460E46FC
:1023900090461F4600F020F9381A241800F01CF966
:1023A0008146514801684901090D6143009105E0EA
:1023B000009800B900240098401E009028688168A9
:1023C0003140B1420CBF01200020404535D017F10B
:1023D000010FF3D000F000F9A0EB0900A04201D2F8
:1023E000002CE5D12868416821F0E001416068686F
:1023F000B0F5827F0BD1A868B0F5004F18BFB0F5DB
:10240000806F04D12868016821F040010160A86A4A
:10241000B0F5005F09D12868016821F4005101601E
:102420002868026842F40052026005F15000012160
:10243000417000220270032000E00020BDE8F2831A
:102440001CB504460B46FFF78DFE08D1A068B0F519
:10245000004F18BFB0F5806F04D1FFF71FFDFFF7E5
:1024600081FE07D1A0680092B0F5806F03D00022F2
:10247000802102E00092002201212046FFF783FF25
:1024800010B100F02BF816BD002016BD7CB5044637
:102490001548164E0B4601681825B1FBF5F5B5FB3E
:1024A000F6F64FF47A70464300966168B1F5827F84
:1024B00009D10092802100222046FFF764FF58B125
:1024C00000F00CF876BD009830B10098401E0090E6
:1024D000216888680106F6D4002076BD606D40F062
:1024E00020006065032070470C00002040420F0070
:1024F00080B53448344901604FF482722021426033
:10250000C16100234FF400720A218360C36003613C
:1025100043618261036243628362C162FFF7BEFB73
:1025200018B1BDE8014000F0D1B901BD10B586B0C9
:1025300004461422002101A800F07CFA21682248F8
:1025400081423CD1002221480092016941F480413E
:102550000161016901F480410091009900920368D2
:1025600043F004030360016801F004010091009945
:1025700000920C21036843F002030360022200680A
:1025800000F0020000900098114801910292002191
:102590000391032205210591049201A900F054FA48
:1025A00002210291002203924FF4806003210190E6
:1025B00004910522059201A9064800F045FA06B0EB
:1025C00010BD0000480000200038004030380240B4
:1025D000000802400004024001484068704700BF04
:1025E00000000020F0B5A1B000F0A4FB00F010F94D
:1025F00000F0BAFB00F056FCFFF77AFFAE4CAD4D91
:1026000000F0EAFD2070402101A800F013FFA8A609
:102610004FEA0603AFA200F0F0F800F0EBF800F08C
:10262000F0F800F08AFD0100207014BFFF280FF2BF
:10263000C0263346ABA200F0E0F800F0DBF800F073
:10264000E0F800F06BFE132000F06EFD9B48E821DF
:1026500000F032FE00F066FD034600BFA6A200F0C7
:10266000CCF800F0C7F800F0CCF800F089FE044682
:102670004FEA0403A5A200F0C0F800F0BBF800F098
:10268000C0F81CB900F0B2F8A6A112E0012C03D1E9
:1026900000F0ACF8A7A10CE0022C05D14FF47A733E
:1026A0005FF00D02A7A104E0032C04D100F09EF816
:1026B000A8A100F098F800F03AFD00904FEA00035E
:1026C000A8A2402101A800F0B9FE00F093F800F0A4
:1026D00098F800F086FE04464FEA0403A8A200F032
:1026E0008CF800F087F800F08CF8022C04D14FF43D
:1026F0007A730D22A8A109E0012C4FF47A7307BF69
:102700000B220FF2A4210B220FF2A82100F06BF88C
:1027100000F00FFD4FEA0003A9A200F06EF800F0F0
:1027200069F800F06EF800F06BFE04464FEA04030F
:10273000A8A200F062F800F05DF800F062F82CB991
:102740004FF47A735FF01202A8A10CE0012C05D1BE
:102750004FF47A735FF00B02A9A104E0022C04D1BC
:1027600000F044F8A9A100F03EF801220121012067
:1027700000F07CFD0FF2B024A8A619AF202119A803
:1027800000F058FE4D208DF86400562161207970CC
:10279000B8701E2111A800F04DFE19A8FEF730FDFB
:1027A000C1B219A800F03DFD30B94FF47A730A2286
:1027B000214600F018F812E000F0C9FD78B11E21A2
:1027C00011A800F06FFD20213D4800F08EFA11ABFA
:1027D000324600F012F800F00DF800F012F8642014
:1027E00000F04EFECAE7284600F0DABE4FF47A73D6
:1027F0000C22704701A8FEF703BD402101A800F09C
:102800001DBE82B24FF47A7301A9284600F0C8BEFB
:1028100080B592B0302106A800F00CFE142101A86A
:1028200000F008FE002000902648016841F0805129
:1028300001600021006800F080500090009822485C
:1028400000910221026822F4404242F400420260F8
:102850000122006800F4404000900098069109921F
:1028600010210A91022200210C920D9110224FF4A6
:10287000A8710E920F91042207211092119106A8BF
:1028800000F0BEFF08B172B6FEE7022102910F20F0
:102890004FF480510190002204910392059202218D
:1028A00001A801F0C1F908B172B6FEE713B000BD8E
:1028B0004F4B0000A0000020F4000020E2F0F0E800
:1028C00000000240403802400070004072B6FEE74F
:1028D00070470000436F6E6E65637465643A20252F
:1028E000730A0000496E69743A2025730A000000DB
:1028F0004E4F54204F4B00006765745F73746174D2
:1029000075733A203078253032780A006765745044
:10291000414C6576656C3A2030782530327820203D
:1029200000000000524632345F50415F4D494E0A6C
:1029300000000000524632345F50415F4C4F570A4E
:1029400000000000524632345F50415F484947481A
:102950000A000000524632345F50415F4D41580A30
:10296000000000006765744368616E6E656C3A2014
:1029700030782530327820E284962025640A0000E1
:1029800067657444617461526174653A20307825DA
:102990003032782020000000524632345F32353029
:1029A0004B4250530A000000524632345F324D42CF
:1029B00050530A00524632345F314D4250530A00A0
:1029C0006765745061796C6F616453697A653A2008
:1029D00025640A006765744352434C656E677468EA
:1029E0003A203078253032782020000052463234A8
:1029F0005F4352435F44495341424C45440A0000FF
:102A0000524632345F4352435F380A0052463234F2
:102A10005F4352435F31360A0000000041636B3A66
:102A20002025730A000000004E6F742077726974CD
:102A3000650A000010B5044610460A4601462046C5
:102A400001F032FA204610BD2DE9F84F0546DFF8B7
:102A5000BC020E4685421CBFDFF8B4128D4212D074
:102A6000DFF8B00285421CBFDFF8AC128D420AD0FD
:102A7000DFF8A80285421CBFDFF8A422954202D0ED
:102A8000AC2100F016F93068010402D0000C0004FB
:102A900002D0AD2100F00DF97068002818BF0128A0
:102AA0001CD0112818BF022818D0122818BFB0F562
:102AB000881F13D0B0F5041F18BFB0F5441F0DD008
:102AC000B0F5901F18BFB0F5081F07D0B0F5481F2C
:102AD00018BF032802D0AE2100F0EBF80027DFF882
:102AE0004442012000FA07FB30680BEA0008D84591
:102AF00040F0D3804FEA4709032000FA09F06FEA5B
:102B0000000A706800F0030101291CBF00F00300F7
:102B1000022819D1F068002818BF012806D0022821
:102B200018BF032802D0C02100F0C3F8A868F168DC
:102B300000F0B9F8A860686820EA0B017068C0F37B
:102B40000010B840084368604FEA870B307900F006
:102B5000030003283DD0B06800281CBF01280228CC
:102B600002D0D12100F0A5F8E868B16800F09BF828
:102B7000E860307900F0030002282AD1306900288B
:102B800018BF0C2817D0012818BF022813D003281B
:102B900018BF04280FD0052818BF06280BD0072817
:102BA00018BF082807D009281CBF0A280F2802D000
:102BB000DE2100F07EF8F80805EB80000BF01C0227
:102BC000016A0F2393409943336903FA02F21143D8
:102BD000016228680AEA0001307900F0030000FA77
:102BE00009F008432860716811F4403F55D0002077
:102BF0004D4900900BF00C030A6842F480420A60D1
:102C00000A684A4902F4804200920098B80851F8D4
:102C100020200F21994022EA01013C4A954208BF39
:102C2000002213D03A4A954208BF01220ED0394AF9
:102C3000954208BF022209D0374A954208BF0322B5
:102C400004D0364A95420CBF042207229A400A4318
:102C5000364941F820206FEA080021687268014077
:102C6000D30348BF48EA01012160616872680140EE
:102C7000930348BF48EA01016160A168726801409E
:102C8000D30248BF48EA0101A160E16801407068D1
:102C9000820248BF48EA0101E1607F1C102FFFF467
:102CA00020AFBDE8F18F0AEA000001FA09F10843FC
:102CB00070471F48FFF70CBEF8B50D4616462A00B0
:102CC00004461B4F04D140F29D113846FFF700FE29
:102CD000300007D0012E06D04FF4CF713846FFF7F1
:102CE000F7FD00E02D04A561F1BD38B50D000446E7
:102CF00003D14FF4DB71FFF7DCFF606905EA0001E7
:102D0000854345EA0145A56131BD00000000024050
:102D10000004024000080240000C02400010024083
:102D2000001C0240003C0140443802400838014089
:102D30002441000880B50B48016841F4007101602E
:102D4000026842F480620260016841F480710160AF
:102D5000032001F0ECF8002001F05CF901F07AF9B1
:102D6000002002BD003C024070B586B01422002154
:102D70006846FFF75FFE00213D483E4C3E4D059101
:102D80004FF40416026842F0040202600022016857
:102D900001F0040100F07AF843F080030360016859
:102DA00001F0800100F072F843F001030360016854
:102DB00001F0010100F06AF843F0020303600168CA
:102DC00001F002010591059905920321036843F082
:102DD00008030360006800F008000590059820468D
:102DE000FFF76AFF002220212846FFF765FF4FF416
:102DF0000050002100900291019600F043F8032159
:102E000000910122002102910192039200F03AF810
:102E100049F6D37000F03FF82846FFF715FE202151
:102E200000910122002102910391019269462846F6
:102E3000FFF70AFE41F6F07000F02DF800F023F8DD
:102E40004FF2F33000F027F80C4C00F01CF804218E
:102E5000009101960021029120466946FFF7F4FD9A
:102E6000042000F018F80648FFF7EEFD06B070BD2C
:102E700030380240000802400000024000040240D6
:102E8000000C024069462046FFF7DEBD059105991A
:102E9000059203687047032100900191002202927D
:102EA0006946704780B52348234901604FF4E132F9
:102EB00000230C2142608360C36003614161836130
:102EC000C36100F0F1FA18B1BDE80140FFF7FEBCA4
:102ED00001BD10B586B004461422002101A8FFF7F9
:102EE000A9FD21681448814222D100221348009292
:102EF000016941F400310161016901F4003100917F
:102F0000009900920C21036843F001030360022240
:102F1000006800F0010000900098094801910292B9
:102F20000021039104910721059101A9FFF78CFD70
:102F300006B010BDA0000020004400403038024020
:102F40000000024080B502460121DFF88004FFF74F
:102F5000B3FEBDE802400A2000F092BA0246022108
:102F6000DFF86804FFF7A8BE1CB500F01F008DF85D
:102F70000500002200F0CCF94FF47A7000F042F81E
:102F800000F087F900F0E1F99DF8040016BD7CB56A
:102F900000F01F00154600F02FF88DF804200C46B5
:102FA00000F0B8F9642000900123DFF8246401AA3E
:102FB0000DF105013046FFF7DFF8642300F0C0F99A
:102FC00000F0C3F99DF8040076BD13B500F01F00B2
:102FD00082B000F011F800F09BF9642000F012F8C4
:102FE00000F092F903A92046FEF75EFF00F0ADF96C
:102FF0009DF8040004B010BD40F0200000228DF8C0
:103000000500704700900123DFF8C44301AA0DF1C9
:1030100005012046FFF7B0B8FEB500F05EF846782F
:1030200080788DF805200C460021B44228BF344634
:1030300000288DF8041014BF0026361B00F06AF932
:1030400064200090012301AA0DF105013846FFF725
:1030500093F86423224629463846FEF725FF04E00C
:1030600000208DF8000000F03EF83046461EC0B249
:103070000028F5D100F069F99DF80400FEBDF8B50F
:1030800000F02BF8447880780E46B44238BF2646CC
:10309000002814BF0024A41B61218DF8001000F04B
:1030A00039F900F020F86423324629463846FEF705
:1030B000BDFF09E000208DF80100642301220DF11D
:1030C00001013846FEF7B2FF2046441EC0B2002878
:1030D000F0D100F03AF90020F2BD0546DFF8F40225
:1030E000DFF8EC7270476423012269463846FEF728
:1030F000DBBEE22000E0E12001B582B000208DF8C7
:103100000400FFF71FFF4FF47A710091012301AA19
:1031100002A9DFF8BC02FFF72FF800F016F99DF8BE
:1031200004000EBDFF20E7E7014605204DE705201E
:103130001AE7DFF8A0024078704738B5DFF89452FC
:1031400000202870202105200022E8706970AA70F4
:103150002A7100F04FF800F0F8F8052000F090F91F
:103160000C2100F05AF80F21052000F05BF9032034
:1031700000F0F6F8022000F009F908B101202870EB
:1031800000F02DF90446002000F000F900F0A6F848
:1031900000F01FF800F01AF80020A87000F027F8DF
:1031A0004C210520FFF711FFFFF7A3FFFFF7A3FF57
:1031B00000F022F800F033F800F02DF8002C18BFD2
:1031C000FF2C01D0012032BD002032BD00211C2087
:1031D000FBE600211D20F8E680B50320FFF7C4FEC2
:1031E00018B1042801DA012002BD002002BD7021BF
:1031F0000720EAE60020B1E680B500F010F881076C
:1032000008D440F0020100F008F8BDE802400520B3
:1032100000F036B901BD00F0FE010020D5E6002027
:10322000A2E680B50123012200F012F8FF20FFF78B
:1032300063FF10F0300FF9D0FFF7DCFFFFF7D7FF87
:10324000C00603D5FFF757FF002002BD012002BDD5
:1032500010B5002A1C4614BFB022A022FFF7DCFEE6
:103260001CB1BDE81040012078E610BD70B50446E1
:103270000D461646FFF7D3FF00F08F0040EA051019
:1032800040EA441040EA8610BDE87040C1B2002018
:103290009BE64FF47A700090012301AAFF2120469B
:1032A000FEF76ABF80B5FFF7EAFEBDE8044000E024
:1032B00000007021072088E613B5464CE278694685
:1032C0000A20FFF764FEE27869461020FFF75FFEF0
:1032D00061781120FFF779FE13BD00001CB5502165
:1032E0008DF8001000F016F8394C00F00DF8694622
:1032F0002046FEF7D9FD00F007F873212046FEF7BF
:10330000D3FD00F022F813BD4FF47A730122704709
:103310008DF80420002015E61D2025E680B5FFF776
:10332000FBFF40F00601FFF755FF1C20FFF71CFED6
:1033300040F00301FFF74BFF26490120887001BDD3
:103340002A4621463046FEF7AFBD0120FAE580B59A
:103350001720FFF709FE00F0010080F0010002BD18
:1033600010B500F03BF8042C00F0F800AEBF0724C5
:103370006400641C0443E1B2BDE81040062024E66A
:1033800080B500F02CF8C0F3410002BD70B500F02C
:1033900025F820F0280600255520022C03D146F000
:1033A00020069B2004E0012C04BF46F008064120C3
:1033B0000949087031460620FFF707FE00F00FF8B4
:1033C000B04208BF0125284670BD00000008024039
:1033D00048000020E4000020F500002004460620FC
:1033E000C2E580B5FFF7FBFF00F02800202801D1DF
:1033F000022002BD082801D1012002BD002002BD2B
:10340000002038B5FFF7B0FD05460120FFF7ACFD01
:103410000024290700D418B168074CBF02240124F6
:10342000204632BD01F00F0141EA0011C9B204206B
:10343000CBE50000002200F02BBE000008B438B538
:1034400085B009AC00250494039500290EBF0195B1
:103450000190491E0291009504AB01A907487844E8
:103460001A30FCF797FE019901B10D70002858BF82
:10347000039806B030BC5DF808FB00BF2BDDFFFFF2
:1034800038B50446FFF7A8F814F1010F054602D03D
:10349000044801786418FFF79FF8401BA042FAD354
:1034A00031BD00BF0000002070B5040001D1012033
:1034B00070BD2168A069364D364A374B374EB8B1DA
:1034C000B1421CBF9942914203D04FF4B97100F050
:1034D0004FF8A069002818BFB0F5807F11D0B0F573
:1034E000007F18BFB0F5407F0BD040F2731106E0AB
:1034F000B1421CBF9942914203D040F2771100F0D3
:1035000037F8A068002818BFB0F5805F03D040F2FC
:10351000791100F02DF8E069002818BFB0F5004FD0
:1035200003D04FF4BD7100F023F804F13C05687836
:1035300008B900F00EF800F011F800F01CF8C168AE
:1035400041F40051C1600020686020216970A970B9
:1035500070BD002129702046FFF7BBBC2420687095
:103560002068C16821F40051C160204600F0B8B85D
:103570002846FFF7ADB92068016921F49041016147
:103580002068416921F02A014161206870470000EC
:103590008441000800140140004400400010014034
:1035A0002DE9F843054605F13C060C4670782028C5
:1035B0001746994649D10CB1380001D1012045E0A8
:1035C0003078012841D00121317000207060212223
:1035D0007270FFF701F8AF848046EF84A868B0F5F9
:1035E000805F04BF286900280EBF274620460027B9
:1035F0000021317004460EE014F8012B426007E010
:103600002868002CF8D137F8021BC1F3080141608B
:10361000E88C411EE9844346E88CCDF800900028F0
:1036200007D000228021284600F012F80028E7D0B9
:1036300005E000224021284600F00AF808B10320E6
:1036400004E020207070002000E00220BDE8F2833A
:103650002DE9F041069C05460E4690461F46286817
:1036600001683140B1420CBF0120002040451BD110
:1036700014F1010FF3D024B1FEF7AEFFC01B84425A
:10368000EDD200F018F821F4D07100F010F8F8D164
:1036900000F019F8FCD105F13C0020214170817047
:1036A00000210170032000E00020BDE8F08143E824
:1036B000001000287047286800F10C0151E8001F35
:1036C00000F10C037047286800F1140151E8001F55
:1036D000490800F11403490043E80010002870472E
:1036E00070B50446414B62683F4D9A4203D340F6A1
:1036F0005661FFF73DFFE068002818BFB0F5005F96
:1037000003D040F65761FFF733FF206900281CBF44
:10371000B0F5806FB0F5C06F03D040F65861FFF789
:1037200027FF60694FF6F371084200D118B940F6DF
:103730005961FFF71DFF22681169E06821F44051CB
:1037400001431161D3682A48A168034020690B43F3
:1037500061690343E0690B430343D3605169A06986
:1037600021F44071014351611E498A421CBF1C482B
:10377000824202D100F04EFB01E000F043FB6268A0
:103780002568E46964261921B4F5004FA1FB000106
:1037900012D1D30F5200FEF739F900F02BF8F600E2
:1037A00032366420B6FBF0F0420002F4F87202EB0D
:1037B000011200F0070010E0930F9200FEF726F9C7
:1037C00000F018F8360132366420B6FBF0F000F055
:1037D000F00202EB011200F00F008018A86070BD2B
:1037E000001401400010014084410008A137A000EE
:1037F000F369FFFF6421B0FBF1F106FB110670478E
:103800002DE9FC4704002BD02268DFF80884102A39
:1038100003D3E8214046FFF75BF82078DFF8F86330
:10382000C1071FD5606800281CBFB0F5803FB0F508
:10383000A02F03D0ED214046FFF74AF8B06800F012
:103840000C00042807D0B06800F00C0008285CD1F8
:103850007068410259D53068810303D5606800283B
:1038600000F0D2812078DFF8B47381072BD5E068AF
:10387000002818BF012804D040F21F114046FFF76E
:1038800027F82069202804D34FF490714046FFF7B1
:103890001FF8B06810F00C0F07D0B06800F00C00F3
:1038A000082868D17068410265D43068810703D563
:1038B000E068012840F0A8813168206921F0F80112
:1038C00041EAC00131602178080740F187806069D2
:1038D000DFF84C53002873D0012807D04FF4B071A3
:1038E0004046FEF7F5FF6069002869D00121296094
:1038F000FEF772FE0546706F81076FD4FEF76CFE0F
:10390000401B0228F7D9032081E16068B0F5803FB1
:1039100004D1306840F48030306011E0B0F5A02F61
:10392000306806D140F480203060316841F4803145
:1039300005E020F480303060316821F4802131606E
:10394000606858B1FEF748FE05463068810389D4A7
:10395000FEF742FE401B6528F7D3D4E7FEF73CFE96
:103960000546306881037FF57DAFFEF735FE401BCD
:103970006528F6D3C7E7E068A8B101213960FEF7F2
:103980002BFE05463068810705D4FEF725FE401B57
:103990000228F7D9B7E73068216920F0F80040EA3B
:1039A000C10030608FE73860FEF716FE05463168CB
:1039B000880788D5FEF710FE401B0228F7D9A2E73A
:1039C00000202860FEF708FE0546706F810705D5C8
:1039D000FEF702FE401B0228F7D994E72078410742
:1039E0006AD5A068002500281CBF0128052804D03E
:1039F0004FF4C6714046FEF76BFF306CC1000AD42D
:103A000000950125316C41F080513164306C00F03B
:103A1000805000900098DFF80C92D9F80000C105A2
:103A200013D4D9F8000040F48070C9F80000FEF704
:103A3000D3FD8246D9F80000C10506D4FEF7CCFDBF
:103A4000A0EB0A000228F5D95DE7A068012805D09F
:103A50000528306F06D140F004003067306F40F029
:103A6000010005E0400840003067306F20F004009E
:103A7000306741F28939A06860B1FEF7ADFD82463A
:103A8000306F810713D4FEF7A7FDA0EB0A0048456D
:103A9000F6D338E7FEF7A0FD8246306F810706D5E2
:103AA000FEF79AFDA0EB0A004845F6D32BE71DB1BF
:103AB000306C20F080503064A06900280AD00128C2
:103AC00018BF022808D040F2CF114046FEF700FF91
:103AD000A069002800F09A80A069B16801F00C018B
:103AE00008296FD002285FD1E069002818BFB0F51F
:103AF000800F04D04FF4EC714046FEF7E9FE206AD7
:103B0000402804D340F2D9114046FEF7E1FE606A36
:103B1000323840F27F11884204D34FF4ED714046B1
:103B2000FEF7D6FEA06A022818BF042808D006288F
:103B300018BF082804D040F2DB114046FEF7C8FE4B
:103B4000E06A801E0E2804D34FF4EE714046FEF763
:103B5000BFFE00203866FEF73FFD05463068810154
:103B600005D5FEF739FD401B0228F7D9CBE6E06901
:103B7000216A626A0843A16A490840EA8210491E24
:103B800040EA0140E16A40EA016070600120386665
:103B9000FEF722FD04463068810137D4FEF71CFD94
:103BA000001B0228F7D9AEE600203866FEF714FDA8
:103BB00004463068810129D5FEF70EFD001B02285E
:103BC000F7D9A0E601281FD07068E26900F48001EF
:103BD000914202BF00F03F01226A914201BF47F6C5
:103BE000C0710140626AB1EB821F0DD1A26A520816
:103BF00000F44031521EB1EB024F02BF00F0706082
:103C0000E16AB0EB016F01D0012000E00020BDE8C7
:103C1000F68700BFE4410008003802400000474238
:103C2000800E4742007000402DE9F84304000D4625
:103C30006FD02068DFF8F08108B1102803D34FF46B
:103C4000177100F0DCF8002D18BF012D0FD0022DE8
:103C500018BF032D0BD0042D18BF052D07D0062D3E
:103C600018BF072D03D040F25D2100F0C8F86F4E59
:103C7000306800F00700A84202D200F0BAF86ED116
:103C800020686B4F810728D5400703D5B96841F4F8
:103C9000E051B9602078010703D5B86840F460406E
:103CA000B860A068002818BF802810D0902818BFDE
:103CB000A0280CD0B02818BFC02808D0D0281CBF1E
:103CC000E028F02803D04FF4207100F098F8B9688C
:103CD000A06821F0F0010143B9602178C80736D50A
:103CE0006068B8B101280AD0022818BF03280DD097
:103CF00040F2872100F083F86068012802D138681B
:103D0000810305E0022818BF032803D13868810128
:103D100003D424E03868810721D5BA686068920826
:103D200040EA8202BA60FEF757FC8146B8686168D3
:103D300000F00C00B0EB810F09D0FEF74DFCA0EBBA
:103D4000090041F289318842F0D303204FE0306806
:103D500000F00700854204D200F04BF801D00120AA
:103D600045E02078410717D5E068002818BFB0F576
:103D7000805F0BD0B0F5A05F1CBFB0F5C05FB0F5A1
:103D8000E05F03D040F2C52100F039F8B968E0687F
:103D900021F4E0510143B9602178080718D5206962
:103DA000002818BFB0F5805F0BD0B0F5A05F1CBF36
:103DB000B0F5C05FB0F5E05F03D04FF4337100F0B1
:103DC0001EF8B868216920F4604040EAC100B8607C
:103DD00000F03AF8BA681749174BC2F30312895C2E
:103DE000C84018601548006800F014F90020BDE8CC
:103DF000F2833570316801F00701A94270474046EF
:103E0000FEF766BD0C480E4A006813680D49C3F3FF
:103E1000822206E008480A4A006813680949C3F389
:103E20004232895CC8407047E4410008003C0240CF
:103E300000380240504300080C0000200800002019
:103E400008380240D443000830B5144C606800F0D4
:103E50000C00042802D0082802D01DE0104830BD14
:103E6000226820680023410202F03F0204D5256841
:103E70000B49C5F3881003E020680A49C0F3881095
:103E8000A1FB0001FDF7C2FD2168C1F30141491CFE
:103E90004900B0FBF1F030BD024830BD04380240AB
:103EA00000127A000024F40062F30F2262F31F4232
:103EB000401810F0030308D0C91A1FD3DB0748BF0E
:103EC00000F8012D28BF20F8022D130030B414464D
:103ED0001546103928BF20E93C00FAD8490728BF09
:103EE00020E90C0048BF40F8042D890028BF20F8C5
:103EF000022D48BF00F8012D30BC7047C91818BF0B
:103F000000F8012DCB0728BF00F8012D70470000F5
:103F10000901020003D4DFF8E40081547047DFF8A0
:103F2000E03002F00F021A4402F8041C704710B58A
:103F30000446072C18BF062C07D0052C1CBF042CE8
:103F4000032C02D0922100F055F8DFF8B820106859
:103F50004FF6FF012402084004F4E0640443DFF854
:103F6000A8000443146010BDF8B51546102D044692
:103F70000E46DFF8987003D3AA213846FEF7A8FC56
:103F8000102E03D3AB213846FEF7A2FCDFF87400F5
:103F90000168C1F302200121C0F10702052A2EBFEA
:103FA0000F2201FA02F2521E031D072B34BF00201C
:103FB000C01E1640864001FA00F0401E054045EA4A
:103FC00006012046BDE8F440A2E710B5401EB0F15E
:103FD000807F01D3012010BDDFF8344060600F21E5
:103FE0004FF0FF30FFF794FF0021A1600720206011
:103FF000002010BD0548FEF76BBC000000E400E0A7
:1040000018ED00E00CED00E00000FA05C4400008E7
:1040100010E000E038B50D4D0D4B2A7804464FF402
:104020007A711868B1FBF2F2B0FBF2F0FFF7CDFF46
:1040300050B9102C08D2002221464FF0FF30FFF774
:1040400093FFAC60002032BD012032BD0000002093
:104050000C00002082B00020009000220B48416834
:1040600041F480414160416801F480410091009930
:104070000092036843F080530360006800F08050B2
:1040800000900098072002B0FFF751BF403802406F
:1040900000B500BF130096469446103928BFA0E82B
:1040A0000C50FAD85FEA417C28BF0CC048BF40F8EA
:1040B000042BC90728BF20F8022B48BF00F8012BAA
:1040C00000BD0000433A5C55736572735C4D725AD3
:1040D000616E675C4941525F70726A5C73746D33E4
:1040E000325F6E726632346C30315C447269766570
:1040F00072735C53544D3332463478785F48414C88
:104100005F4472697665725C5372635C73746D337D
:1041100032663478785F68616C5F636F727465785B
:104120002E630000433A5C55736572735C4D725A9E
:10413000616E675C4941525F70726A5C73746D3383
:10414000325F6E726632346C30315C44726976650F
:1041500072735C53544D3332463478785F48414C27
:104160005F4472697665725C5372635C73746D331D
:1041700032663478785F68616C5F6770696F2E6350
:1041800000000000433A5C55736572735C4D725ACF
:10419000616E675C4941525F70726A5C73746D3323
:1041A000325F6E726632346C30315C4472697665AF
:1041B00072735C53544D3332463478785F48414CC7
:1041C0005F4472697665725C5372635C73746D33BD
:1041D00032663478785F68616C5F756172742E63E3
:1041E00000000000433A5C55736572735C4D725A6F
:1041F000616E675C4941525F70726A5C73746D33C3
:10420000325F6E726632346C30315C44726976654E
:1042100072735C53544D3332463478785F48414C66
:104220005F4472697665725C5372635C73746D335C
:1042300032663478785F68616C5F7263632E630006
:10424000433A5C55736572735C4D725A616E675C7C
:104250004941525F70726A5C73746D33325F6E7283
:104260006632346C30315C447269766572735C53CB
:10427000544D3332463478785F48414C5F4472691C
:104280007665725C5372635C73746D333266347836
:10429000785F68616C5F7370692E630030B5016888
:1042A00084684218416802EB5103C90703D54C44A6
:1042B00001E0491C05D19A420AD012F9011B12F8FB
:1042C000015B002904F8015BF3D4491EF7D5F2E73E
:1042D0000C3030BD10B5074979441831064C7C4488
:1042E000163404E00A68081D114488470146A142BB
:1042F000F8D110BD2C000000480000004EF6885197
:10430000CEF20001086840F470000860BFF34F8FE0
:10431000BFF36F8F4FF00070E1EE100A704700009E
:1043200037CEFFFFB0000000480000200000000072
:104330006DFFFFFF900100007600000000000020EC
:104340000248016841F470010160704788ED00E0A7
:104350000000000000000000010203040607080935
:1043600000F00DF8002801D0FFF7B4FFAFF3008094
:104370000020AFF30080FEF735F900F002F80120CD
:10438000704700F001B8000007463846FDF77CFC96
:10439000FBE7FEE7FEE7FEE7FEE7FEE77047704754
:1043A000704700F001B800000248416802788A189E
:1043B00042607047000000200148804701480047E4
:1043C00041430008C9430008AFF30080FFF796FFA0
:1043D000FFF7C6FF0000000001020304686A6C7466
:1043E0007A4C0000FFF7FEBFFFF7FEBFFFF7FEBFEE
:1043F000FFF7FEBFFFF7FEBFFFF7FEBFFFF7FEBFF1
:10440000FFF7FEBFFFF7FEBFFFF7FEBFFFF7FEBFE0
:10441000FFF7FEBFFFF7FEBFFFF7FEBFFFF7FEBFD0
:10442000FFF7FEBFFFF7FEBFFFF7FEBFFFF7FEBFC0
:10443000FFF7FEBFFFF7FEBFFFF7FEBFFFF7FEBFB0
:10444000FFF7FEBFFFF7FEBFFFF7FEBFFFF7FEBFA0
:10445000FFF7FEBFFFF7FEBFFFF7FEBFFFF7FEBF90
:10446000FFF7FEBFFFF7FEBFFFF7FEBFFFF7FEBF80
:10447000FFF7FEBFFFF7FEBFFFF7FEBFFFF7FEBF70
:10448000FFF7FEBFFFF7FEBFFFF7FEBFFFF7FEBF60
:10449000FFF7FEBFFFF7FEBFFFF7FEBFFFF7FEBF50
:1044A000FFF7FEBFFFF7FEBFFFF7FEBFFFF7FEBF40
:1044B000FFF7FEBFFFF7FEBFFFF7FEBFFFF7FEBF30
:1044C000FFF7FEBF0001F9000010FC001E24F400FD
:1044D0005213000852130008521300085213000828
:1044E000521300085213000852130008F8FF0B2261
:0F44F0001300085213000852130008FAFFFE00D1
:04000005080043C9E3
:00000001FF
