:020000040800F2
:10000000B004002015200008F11F0008F31F0008AD
:10001000F51F0008F71F0008F91F00080000000086
:10002000000000000000000000000000FB1F0008AE
:10003000FD1F000800000000FF1F0008012000084D
:10004000492000084D2000085120000855200008D4
:10005000592000085D200008612000086520000884
:10006000692000086D200008712000087520000834
:10007000792000087D2000088120000885200008E4
:10008000892000088D200008912000080000000051
:1000900000000000000000000000000095200008A3
:1000A000992000089D200008A1200008A520000834
:1000B000A9200008AD200008B1200008B5200008E4
:1000C000B9200008BD200008C1200008C520000894
:1000D000C9200008CD200008D12000080000000041
:1000E000D5200008D9200008DD200008000000000D
:1000F000000000000000000000000000E1200008F7
:1001000000000000E5200008E9200008ED200008BC
:1001100000000000000000000000000000000000DF
:10012000F1200008F5200008F9200008FD20000853
:100130000121000800000000000000000000000095
:100140000000000000000000000000000521000881
:10015000092100080D2100081121000815210008BF
:10016000192100081D210008000000000000000007
:10017000000000000000000000000000000000007F
:100180000000000021210008000000000000000025
:100190002521000838B5040001D1012032BD2068B6
:1001A000DFF8C016DFF8C05688421CBFDFF8BC2657
:1001B00090420BD0DFF8B81688421CBFDFF8B42697
:1001C000904203D04FF4A17100F056FB6068002804
:1001D00018BFB0F5827F03D040F2431100F04CFB12
:1001E000A06800281CBFB0F5806FB0F5004F03D0A9
:1001F0004FF4A27100F040FBE068B0F5006F18BF4B
:10020000002803D040F2451100F036FBA069B0F59C
:10021000007F1CBF0028B0F5802F03D04FF4A371DE
:1002200000F02AFBE069002818BF08280FD010282A
:1002300018BF18280BD0202818BF282807D030282E
:1002400018BF382803D040F2471100F015FB206A90
:10025000002818BF802803D04FF4A47100F00CFBD5
:10026000606A38B1102833D040F2491100F004FB25
:10027000606A68BB2069002818BF022803D04FF4C9
:10028000A67100F0F9FA6069002818BF012803D0B0
:1002900040F24D1100F0F0FA00F0E0F915D1E069FC
:1002A000002818BF08282BD0102818BF182827D0DE
:1002B000202818BF282823D0302818BF38281FD05E
:1002C00040F2511100F0D8FA1AE00020E06117E086
:1002D000E069002818BF08280FD0102818BF182878
:1002E0000BD0202818BF282807D0302818BF38285E
:1002F00003D040F25B1100F0BFFA00202061606182
:100300000020A06204F15005687820B9002129700E
:10031000204600F087FB00F03BF86068A168E268C7
:1003200000F4827001F404410843217C02F400626D
:100330001043227D01F002010843A16902F001028D
:100340001043227F01F40071084394F8201002F05A
:1003500038021043A26A01F080010843216802F4C8
:10036000005210430860A06994F824102268000C21
:1003700000F0040001F01001084350602068C169DA
:1003800021F40061C161002068600121697032BD03
:10039000022068702068016821F040010160704708
:1003A0002DE9F84304460026A068002818BFB0F5E0
:1003B000004F89461546984603D040F20A3100F0B6
:1003C0004DFA04F150073878012808BF022000F0E8
:1003D000A7800120387000F07BFB797801292A463C
:1003E00018BF022655D1B9F1000F00D02B0000F044
:1003F000948003237B707E60C4F83090A586E586E8
:10040000A663A687E68766642664A368B3F5004FF3
:1004100009D121680B6823F040030B6021680D6847
:1004200045F480450D6021680B685D0603D40B68B8
:1004300043F040030B60E168B1F5006F61682DD1B6
:10044000002918BF012A09D1216B23680A88DA60C4
:10045000216B8A1C2263E18E4A1EE286054608E073
:10046000216B0A88C260206B811C2163E08E411ED3
:10047000E186E08E00283DD0206881688A07EFD4AD
:1004800000F026FB401B404504D318F1010FF0D0CB
:10049000032643E0B8F1000FEBD1F9E7002918BFBC
:1004A000012A09D1216B23680A781A73216B4A1C2F
:1004B0002263E18E4A1EE286054608E0216B0A7837
:1004C0000273206B411C2163E08E411EE186E08EA9
:1004D00080B1206881688A07F0D400F0F9FA401BE7
:1004E000404503D318F1010FF1D0D1E7B8F1000F67
:1004F000EDD1CDE72A464146204600F043FA08B147
:1005000020207860A06830B900962168CA680092FF
:1005100089680091009A786800B1012600F0A2F87D
:10052000BDE8F2832DE9F843002604460D4600F0AD
:1005300095F804BFA06800289146984604F150073A
:1005400009D104267E70CDF800804B462A4620460D
:1005500000F08EF880E03878012808BF02207BD0B8
:100560000120387000F0B4FA7978012918BF02260A
:1005700070D1002D18BFB9F1000F6AD00421797035
:100580007E60A563A4F83C90A4F83E902663A686FE
:10059000E68626646664A268B2F5004F09D1216838
:1005A0000A6822F040020A6021680B6823F4804345
:1005B0000B6021680A68530603D40A6842F04002BF
:1005C0000A600546E168002926D108E0007BA16B9E
:1005D0000870A06B421CA263E08F411EE187E08F90
:1005E00068B320688168CA07F0D400F071FA401B34
:1005F000404504D318F1010FF1D003262AE0B8F1E9
:10060000000FECD1F9E7C068A16B0880A06B821CD9
:10061000A263E08F411EE187E08F80B1206881688E
:10062000CA07F0D400F054FA401B404503D318F138
:10063000010FF1D0E1E7B8F1000FEDD1DDE72A4677
:100640004146204600F078F908B1202078607868AB
:1006500000B1012600F006F8BDE8F2836068B0F54D
:10066000827F7047012078700021397030467047D2
:100670002DE9FC4705468A46A86891461C464FF07E
:100680000108002618B140F27E4100F0E7F805F1BC
:1006900050073878012808BF022000F0DD8087F875
:1006A000008000F015FA7A78012A234609D069689B
:1006B000B1F5827F02BFA9680029042A01D0022671
:1006C000C5E0BAF1000F18BFB9F1000F00D00CB9A6
:1006D0000126BCE0797804291CBF052179707E6071
:1006E000C5F83890EC87AC87C5F830A0EC86AC86AE
:1006F0002E646E6429680C68620603D40C6844F0AA
:1007000040040C60E9680A9CB1F5006F696844D147
:10071000002918BF012B09D1296B2B680A88DA60E0
:10072000296B8A1C2A63E98E4A1EEA868146E88E76
:10073000002804BFE88F002876D0296888688207DF
:100740000FD5E88E002818BFB8F1000F09D0286B2C
:100750000288CA60B046286B811C2963E88E411E5E
:10076000E98629688868C2070CD5E88F50B1C86847
:10077000A96B08804FF00108A86B821CAA63E88F60
:10078000411EE98700F0A4F9A0EB0900A042CED3F6
:1007900014F1010FCBD0032659E0002918BF012B1B
:1007A00009D1296B2B680A781A73296B4A1C2A63B2
:1007B000E98E4A1EEA868146E88E002804BFE88F4B
:1007C000002831D02968886882070FD5E88E002874
:1007D00018BFB8F1000F09D0286B02780A73B04631
:1007E000286B411C2963E88E411EE98629688868C8
:1007F000C2070CD5E88F50B1C868A96B08704FF0DC
:100800000108A86B421CAA63E88F411EE98700F02B
:100810005FF9A0EB0900A04203D314F1010FCBD084
:10082000B9E7002CC8D1B6E74A462146284600F071
:10083000A9F818B120200126786008E0A86830B92E
:1008400000962968CA680092896800910098012181
:100850007970002038703046BDE8F687DFF8080070
:1008600000F0E2B900300140681E00080038004086
:10087000003C004000340140284600F0D5B92DE985
:10088000F843089C05460E4690461F4600F020F9A6
:10089000381A241800F01CF98146514801684901B2
:1008A000090D6143009105E0009800B9002400980B
:1008B000401E0090286881683140B1420CBF012081
:1008C0000020404535D017F1010FF3D000F000F9BA
:1008D000A0EB0900A04201D2002CE5D128684168B4
:1008E00021F0E00141606868B0F5827F0BD1A86813
:1008F000B0F5004F18BFB0F5806F04D128680168CB
:1009000021F040010160A86AB0F5005F09D12868B4
:10091000016821F4005101602868026842F4005225
:10092000026005F150000121417000220270032095
:1009300000E00020BDE8F2831CB504460B46FFF73B
:100940008DFE08D1A068B0F5004F18BFB0F5806FDC
:1009500004D1FFF71FFDFFF781FE07D1A0680092C9
:10096000B0F5806F03D00022802102E000920022C7
:1009700001212046FFF783FF10B100F02BF816BDD0
:10098000002016BD7CB504461548164E0B4601687E
:100990001825B1FBF5F5B5FBF6F64FF47A70464332
:1009A00000966168B1F5827F09D100928021002212
:1009B0002046FFF764FF58B100F00CF876BD0098B0
:1009C00030B10098401E0090216888680106F6D476
:1009D000002076BD606D40F0200060650320704708
:1009E0000C00002040420F0080B5344834490160BB
:1009F0004FF4827220214260C16100234FF40072E3
:100A00000A218360C36003614361826103624362C0
:100A10008362C162FFF7BEFB18B1BDE8014000F080
:100A200001B901BD10B586B004461422002101A809
:100A300000F0FBF82168224881423CD10022214885
:100A40000092016941F480410161016901F4804132
:100A5000009100990092036843F004030360016869
:100A600001F004010091009900920C21036843F009
:100A7000020303600222006800F002000090009868
:100A80001148019102920021039103220521059151
:100A9000049201A900F0F0F80221029100220392D1
:100AA0004FF480600321019004910522059201A971
:100AB000064800F0E1F806B010BD0000100000206C
:100AC0000038004030380240000802400004024074
:100AD00001484068704700BF0000002070B500F07A
:100AE00031FA00F043F800F047FA00F0E3FAFFF7BC
:100AF0007BFF474C00F035F80A2000F02BFB00226A
:100B000000F030F8434D444E00F023F800F01BF89D
:100B100000F027F8002200F025F825206721287032
:100B200069700A23022229463046FFF739FC00F09B
:100B300018F8002200F016F800F00BF800F003F8A7
:100B400000F00FF8FEE70A230122691C3046FFF788
:100B5000E9BC052028700A23012229463046FFF708
:100B60001FBC01220121204600F0BEB980B592B021
:100B70003022002106A800F058F81422002101A814
:100B800000F053F8002000902448016841F08051A3
:100B900001600021006800F080500090009820481B
:100BA00000910221026822F4404242F400420260B5
:100BB0000122006800F440400090009806910992DC
:100BC00010210A91022200210C920D9110224FF463
:100BD000A8710E920F91042207211092119106A87C
:100BE00000F0CCFA08B172B6FEE7022102910F20A4
:100BF0004FF480510190002204910392059202214A
:100C000001A800F0CFFC08B172B6FEE713B000BD3A
:100C100000080240AC0000201000002040380240D4
:100C20000070004072B6FEE7704710B504461046EB
:100C30000A460146204600F0F5FD204610BD30B4BE
:100C4000002513E050F8042BD30744BFA9F101039A
:100C50009A18091F042942F8045BFAD213468C073C
:100C600044BF15809B1CC90748BF1D7050F8041B6A
:100C70000029E7D130BC70472DE9F84F0546DFF871
:100C80009C020E4685421CBFDFF894128D4212D0A2
:100C9000DFF8900285421CBFDFF88C128D420AD02B
:100CA000DFF8880285421CBFDFF88422954202D01B
:100CB000AC2100F016F93068010402D0000C0004E9
:100CC00002D0AD2100F00DF97068002818BF01288E
:100CD0001CD0112818BF022818D0122818BFB0F550
:100CE000881F13D0B0F5041F18BFB0F5441F0DD0F6
:100CF000B0F5901F18BFB0F5081F07D0B0F5481F1A
:100D000018BF032802D0AE2100F0EBF80027DFF86F
:100D10002442012000FA07FB30680BEA0008D8459E
:100D200040F0D3804FEA4709032000FA09F06FEA48
:100D3000000A706800F0030101291CBF00F00300E5
:100D4000022819D1F068002818BF012806D002280F
:100D500018BF032802D0C02100F0C3F8A868F168CA
:100D600000F0B9F8A860686820EA0B017068C0F369
:100D70000010B840084368604FEA870B307900F0F4
:100D8000030003283DD0B06800281CBF01280228BA
:100D900002D0D12100F0A5F8E868B16800F09BF816
:100DA000E860307900F0030002282AD13069002879
:100DB00018BF0C2817D0012818BF022813D0032809
:100DC00018BF04280FD0052818BF06280BD0072805
:100DD00018BF082807D009281CBF0A280F2802D0EE
:100DE000DE2100F07EF8F80805EB80000BF01C0215
:100DF000016A0F2393409943336903FA02F21143C6
:100E0000016228680AEA0001307900F0030000FA64
:100E100009F008432860716811F4403F55D0002064
:100E2000454900900BF00C030A6842F480420A60C6
:100E30000A68424902F4804200920098B80851F8CA
:100E400020200F21994022EA0101344A954208BF2F
:100E5000002213D0324A954208BF01220ED0314AF7
:100E6000954208BF022209D02F4A954208BF0322AB
:100E700004D02E4A95420CBF042207229A400A430E
:100E80002E4941F820206FEA08002168726801406D
:100E9000D30348BF48EA01012160616872680140DC
:100EA000930348BF48EA01016160A168726801408C
:100EB000D30248BF48EA0101A160E16801407068BF
:100EC000820248BF48EA0101E1607F1C102FFFF455
:100ED00020AFBDE8F18F0AEA000001FA09F10843EA
:100EE00070471748FFF7A0BEF8B50D4616462A0012
:100EF0000446134F04D140F29D113846FFF794FE8B
:100F0000300007D0012E06D04FF4CF713846FFF7DE
:100F10008BFE00E02D04A561F1BD00000000024041
:100F20000004024000080240000C02400010024091
:100F3000001C0240003C0140443802400838014097
:100F4000B81D000880B50B48016841F400710160CC
:100F5000026842F480620260016841F480710160BD
:100F6000032000F0B8FC002000F028FD00F046FD52
:100F7000002002BD003C024070B586B01422002162
:100F80006846FFF752FE00213D483E4C3E4D05911C
:100F90004FF40416026842F0040202600022016865
:100FA00001F0040100F07AF843F080030360016867
:100FB00001F0800100F072F843F001030360016862
:100FC00001F0010100F06AF843F0020303600168D8
:100FD00001F002010591059905920321036843F090
:100FE00008030360006800F008000590059820469B
:100FF000FFF77AFF002220212846FFF775FF4FF404
:101000000050002100900291019600F043F8032166
:1010100000910122002102910192039200F03AF81E
:1010200049F6D37000F03FF82846FFF725FE20214F
:101030000091012200210291039101926946284604
:10104000FFF71AFE41F6F07000F02DF800F023F8DB
:101050004FF2F33000F027F80C4C00F01CF804219C
:10106000009101960021029120466946FFF704FE97
:10107000042000F018F80648FFF7FEFD06B070BD2A
:1010800030380240000802400000024000040240E4
:10109000000C024069462046FFF7EEBD0591059918
:1010A000059203687047032100900191002202928B
:1010B0006946704780B52348234901604FF4E13207
:1010C00000230C2142608360C3600361416183613E
:1010D000C36100F0B1FC18B1BDE80140FFF7A2BD4B
:1010E00001BD10B586B004461422002101A8FFF707
:1010F0009CFD21681448814222D1002213480092AD
:10110000016941F400310161016901F4003100918C
:10111000009900920C21036843F00103036002224E
:10112000006800F0010000900098094801910292C7
:101130000021039104910721059101A9FFF79CFD6E
:1011400006B010BD68000020004400403038024066
:101150000000024038B50446FFF7BAFC14F1010F55
:10116000054602D0044801786418FFF7B1FC401B23
:10117000A042FAD331BD00BF000000202DE9FC479A
:1011800004002BD02268DFF80884102A03D3E8215A
:101190004046FFF749FD2078DFF8F863C1071FD507
:1011A000606800281CBFB0F5803FB0F5A02F03D0C9
:1011B000ED214046FFF738FDB06800F00C00042830
:1011C00007D0B06800F00C0008285CD170684102BC
:1011D00059D53068810303D56068002800F0D281BA
:1011E0002078DFF8B47381072BD5E068002818BF9A
:1011F000012804D040F21F114046FFF715FD206979
:10120000202804D34FF490714046FFF70DFDB068DD
:1012100010F00C0F07D0B06800F00C00082868D15F
:101220007068410265D43068810703D5E068012801
:1012300040F0A8813168206921F0F80141EAC0013D
:1012400031602178080740F187806069DFF84C53EE
:10125000002873D0012807D04FF4B0714046FFF743
:10126000E3FC6069002869D001212960FFF730FCA8
:101270000546706F81076FD4FFF72AFC401B0228D8
:10128000F7D9032081E16068B0F5803F04D1306870
:1012900040F48030306011E0B0F5A02F306806D106
:1012A00040F480203060316841F4803105E020F462
:1012B00080303060316821F480213160606858B13D
:1012C000FFF706FC05463068810389D4FFF700FC70
:1012D000401B6528F7D3D4E7FFF7FAFB05463068D3
:1012E00081037FF57DAFFFF7F3FB401B6528F6D345
:1012F000C7E7E068A8B101213960FFF7E9FB0546BF
:101300003068810705D4FFF7E3FB401B0228F7D9BB
:10131000B7E73068216920F0F80040EAC10030608A
:101320008FE73860FFF7D4FB05463168880788D51A
:10133000FFF7CEFB401B0228F7D9A2E70020286068
:10134000FFF7C6FB0546706F810705D5FFF7C0FBA9
:10135000401B0228F7D994E7207841076AD5A06896
:10136000002500281CBF0128052804D04FF4C671B1
:101370004046FFF759FC306CC1000AD400950125A6
:10138000316C41F080513164306C00F0805000903D
:101390000098DFF80C92D9F80000C10513D4D9F8F1
:1013A000000040F48070C9F80000FFF791FB82460E
:1013B000D9F80000C10506D4FFF78AFBA0EB0A00AC
:1013C0000228F5D95DE7A068012805D00528306F0F
:1013D00006D140F004003067306F40F0010005E0B6
:1013E000400840003067306F20F00400306741F261
:1013F0008939A06860B1FFF76BFB8246306F8107C7
:1014000013D4FFF765FBA0EB0A004845F6D338E795
:10141000FFF75EFB8246306F810706D5FFF758FB6A
:10142000A0EB0A004845F6D32BE71DB1306C20F045
:1014300080503064A06900280AD0012818BF022813
:1014400008D040F2CF114046FFF7EEFBA06900281C
:1014500000F09A80A069B16801F00C0108296FD0F2
:1014600002285FD1E069002818BFB0F5800F04D0D2
:101470004FF4EC714046FFF7D7FB206A402804D3B5
:1014800040F2D9114046FFF7CFFB606A323840F294
:101490007F11884204D34FF4ED714046FFF7C4FB3F
:1014A000A06A022818BF042808D0062818BF0828F8
:1014B00004D040F2DB114046FFF7B6FBE06A801E25
:1014C0000E2804D34FF4EE714046FFF7ADFB002029
:1014D0003866FFF7FDFA05463068810105D5FFF74C
:1014E000F7FA401B0228F7D9CBE6E069216A626A65
:1014F0000843A16A490840EA8210491E40EA0140B7
:10150000E16A40EA0160706001203866FFF7E0FAA6
:1015100004463068810137D4FFF7DAFA001B02284D
:10152000F7D9AEE600203866FFF7D2FA04463068F5
:10153000810129D5FFF7CCFA001B0228F7D9A0E6D4
:1015400001281FD07068E26900F48001914202BF57
:1015500000F03F01226A914201BF47F6C07101408D
:10156000626AB1EB821F0DD1A26A520800F44031C9
:10157000521EB1EB024F02BF00F07060E16AB0EBA7
:10158000016F01D0012000E00020BDE8F68700BF18
:10159000101E00080038024000004742800E4742FB
:1015A000007000402DE9F84304000D466FD020681C
:1015B000DFF8F08108B1102803D34FF4177100F061
:1015C000DCF8002D18BF012D0FD0022D18BF032D00
:1015D0000BD0042D18BF052D07D0062D18BF072DE1
:1015E00003D040F25D2100F0C8F86F4E306800F083
:1015F0000700A84202D200F0BAF86ED120686B4F03
:10160000810728D5400703D5B96841F4E051B96096
:101610002078010703D5B86840F46040B860A0683E
:10162000002818BF802810D0902818BFA0280CD000
:10163000B02818BFC02808D0D0281CBFE028F02848
:1016400003D04FF4207100F098F8B968A06821F039
:10165000F0010143B9602178C80736D56068B8B198
:1016600001280AD0022818BF03280DD040F2872194
:1016700000F083F86068012802D13868810305E032
:10168000022818BF032803D13868810103D424E05D
:101690003868810721D5BA686068920840EA8202FA
:1016A000BA60FFF715FA8146B868616800F00C006F
:1016B000B0EB810F09D0FFF70BFAA0EB090041F264
:1016C00089318842F0D303204FE0306800F00700F2
:1016D000854204D200F04BF801D0012045E020788B
:1016E000410717D5E068002818BFB0F5805F0BD020
:1016F000B0F5A05F1CBFB0F5C05FB0F5E05F03D0F0
:1017000040F2C52100F039F8B968E06821F4E051F1
:101710000143B9602178080718D52069002818BF4F
:10172000B0F5805F0BD0B0F5A05F1CBFB0F5C05F17
:10173000B0F5E05F03D04FF4337100F01EF8B868E5
:10174000216920F4604040EAC100B86000F03AF836
:10175000BA681749174BC2F30312895CC840186076
:101760001548006800F02AF90020BDE8F2833570C2
:10177000316801F00701A94270474046FFF754BAAB
:101780000C480E4A006813680D49C3F3822206E034
:1017900008480A4A006813680949C3F34232895C61
:1017A000C8407047101E0008003C0240003802404C
:1017B000981F00080C000020080000200838024094
:1017C0004020000830B5144C606800F00C0004287C
:1017D00002D0082802D01DE0104830BD22682068E1
:1017E0000023410202F03F0204D525680B49C5F3EE
:1017F000881003E020680A49C0F38810A1FB0001AB
:1018000000F026FA2168C1F30141491C4900B0FBF0
:10181000F1F030BD024830BD0438024000127A00B9
:101820000024F40062F30F2262F31F42401810F00C
:10183000030308D0C91A1FD3DB0748BF00F8012DE6
:1018400028BF20F8022D130030B414461546103975
:1018500028BF20E93C00FAD8490728BF20E90C003E
:1018600048BF40F8042D890028BF20F8022D48BF4A
:1018700000F8012D30BC7047C91818BF00F8012DC1
:10188000CB0728BF00F8012D704730B40EE0026886
:10189000436802440830DC0744BFA9F10104E3189F
:1018A00052F8045B43F8045B091FF9D150F8041B9C
:1018B0000029ECD130BC70470901020003D4DFF8E5
:1018C000E40081547047DFF8E03002F00F021A4460
:1018D00002F8041C704710B50446072C18BF062CEC
:1018E00007D0052C1CBF042C032C02D0922100F041
:1018F00055F8DFF8B82010684FF6FF0124020840C1
:1019000004F4E0640443DFF8A8000443146010BD4D
:10191000F8B51546102D04460E46DFF8987003D32F
:10192000AA213846FFF780F9102E03D3AB213846A1
:10193000FFF77AF9DFF874000168C1F30220012192
:10194000C0F10702052A2EBF0F2201FA02F2521E31
:10195000031D072B34BF0020C01E1640864001FA2D
:1019600000F0401E054045EA06012046BDE8F4406F
:10197000A2E710B5401EB0F1807F01D3012010BD59
:10198000DFF8344060600F214FF0FF30FFF794FF25
:101990000021A16007202060002010BD0548FFF74E
:1019A00043B9000000E400E018ED00E00CED00E0B9
:1019B0000000FA055C1D000810E000E038B50D4D90
:1019C0000D4B2A7804464FF47A711868B1FBF2F295
:1019D000B0FBF2F0FFF7CDFF50B9102C08D2002277
:1019E00021464FF0FF30FFF793FFAC60002032BD7F
:1019F000012032BD000000200C00002082B0002039
:101A0000009000220B48416841F4804141604168E8
:101A100001F48041009100990092036843F08053E3
:101A20000360006800F0805000900098072002B02A
:101A3000FFF751BF4038024070B5040001D10120CA
:101A400070BD2168A069364D364A374B374EB8B164
:101A5000B1421CBF9942914203D04FF4B97100F0DA
:101A60004FF8A069002818BFB0F5807F11D0B0F5FD
:101A7000007F18BFB0F5407F0BD040F2731106E035
:101A8000B1421CBF9942914203D040F2771100F05D
:101A900037F8A068002818BFB0F5805F03D040F287
:101AA000791100F02DF8E069002818BFB0F5004F5B
:101AB00003D04FF4BD7100F023F804F13C056878C1
:101AC00008B900F00EF800F011F800F01CF8C16839
:101AD00041F40051C1600020686020216970A97044
:101AE00070BD002129702046FFF7FBBA24206870E2
:101AF0002068C16821F40051C160204600F018B888
:101B00002846FFF791B82068016921F490410161EE
:101B10002068416921F02A01416120687047000076
:101B2000C01E0008001401400044004000100140A5
:101B300070B50446414B62683F4D9A4203D340F66C
:101B40005661FFF7DDFFE068002818BFB0F5005FC1
:101B500003D040F65761FFF7D3FF206900281CBF70
:101B6000B0F5806FB0F5C06F03D040F65861FFF755
:101B7000C7FF60694FF6F371084200D118B940F60B
:101B80005961FFF7BDFF22681169E06821F44051F7
:101B900001431161D3682A48A168034020690B43BF
:101BA00061690343E0690B430343D3605169A06952
:101BB00021F44071014351611E498A421CBF1C48F7
:101BC000824202D1FFF7E4FD01E0FFF7D9FD626830
:101BD0002568E46964261921B4F5004FA1FB0001D2
:101BE00012D1D30F520000F033F800F02BF8F600BA
:101BF00032366420B6FBF0F0420002F4F87202EBD9
:101C0000011200F0070010E0930F920000F020F89E
:101C100000F018F8360132366420B6FBF0F000F020
:101C2000F00202EB011200F00F008018A86070BDF6
:101C30000014014000100140C01E0008A137A000A0
:101C4000F369FFFF6421B0FBF1F106FB1106704759
:101C5000D3BBD9B1B2F5803F5BD2022A1ED98C46E4
:101C6000B1FBF2F102FB11C31B0443EA1043B3FBC7
:101C7000F2FC02FB1C3380B240EA0343B3FBF2F0F8
:101C800002FB103240EA0C4000237047022A05D9BB
:101C90008446B0FBF2F002FB10C270474AB105D196
:101CA00000F0010249085FEA30007047002200237B
:101CB000704700F051B80B0002000021002070476F
:101CC000F7D3002200237047904271EB030CF2D34C
:101CD00070B5B1FA81F4B3FA83F52C1BA340C4F1BB
:101CE000200532FA05F63343A2405FF00046E64095
:101CF00002E05B085FEA3202841A71EB030524BF3D
:101D0000204629467641F4D302000B003000002122
:101D100070BD70B5B1FA81F4B2FA82F5C4F1200455
:101D20006419B4F12006DAD3B2405FF00044F44005
:101D3000002502E052085FEA3303C61A71EB020E77
:101D400024BF3046714664416D41F3D302000B005D
:101D50002000290070BD000070470000443A5C7705
:101D60006F726B73706163655C73746D33325F6E39
:101D7000726632344C30315C4C696E6B5C44726913
:101D8000766572735C53544D3332463478785F48CD
:101D9000414C5F4472697665725C5372635C737424
:101DA0006D3332663478785F68616C5F636F72742C
:101DB00065782E6300000000443A5C776F726B73A5
:101DC000706163655C73746D33325F6E726632345A
:101DD0004C30315C4C696E6B5C4472697665727331
:101DE0005C53544D3332463478785F48414C5F44FD
:101DF00072697665725C5372635C73746D333266BC
:101E00003478785F68616C5F6770696F2E6300007B
:101E1000443A5C776F726B73706163655C73746D69
:101E200033325F6E726632344C30315C4C696E6BAB
:101E30005C447269766572735C53544D3332463438
:101E400078785F48414C5F4472697665725C537282
:101E5000635C73746D3332663478785F68616C5F8D
:101E60007263632E63000000443A5C776F726B7399
:101E7000706163655C73746D33325F6E72663234A9
:101E80004C30315C4C696E6B5C4472697665727380
:101E90005C53544D3332463478785F48414C5F444C
:101EA00072697665725C5372635C73746D3332660B
:101EB0003478785F68616C5F7370692E630000002E
:101EC000443A5C776F726B73706163655C73746DB9
:101ED00033325F6E726632344C30315C4C696E6BFB
:101EE0005C447269766572735C53544D3332463488
:101EF00078785F48414C5F4472697665725C5372D2
:101F0000635C73746D3332663478785F68616C5FDC
:101F1000756172742E63000010B507497944183159
:101F2000064C7C44163404E00A68081D11448847B6
:101F30000146A142F8D110BD2C0000004C00000069
:101F40004EF68851CEF20001086840F47000086037
:101F5000BFF34F8FBFF36F8F4FF00070E1EE100AA9
:101F600070470000DBECFFFFA00000001000002025
:101F70000000000017F9FFFF10000000A80000009B
:101F800000000020000000000248016841F47001D8
:101F90000160704788ED00E00000000000000000D4
:101FA000010203040607080900F00DF8002801D01B
:101FB000FFF7B2FFAFF300800020AFF30080FEF721
:101FC0008DFD00F002F80120704700F001B800001C
:101FD0000746384600F002F8FBE7000080B5AFF393
:101FE0000080024A11001820ABBEFBE72600020069
:101FF000FEE7FEE7FEE7FEE7FEE770477047704743
:1020000000F000B80248416802788A1842607047C0
:10201000000000200148804701480047891F000850
:102020003520000801000000000000001000000042
:102030000024F400AFF30080FFF782FFFFF7B4FF46
:102040000000000001020304FFF7FEBFFFF7FEBF20
:10205000FFF7FEBFFFF7FEBFFFF7FEBFFFF7FEBFB4
:10206000FFF7FEBFFFF7FEBFFFF7FEBFFFF7FEBFA4
:10207000FFF7FEBFFFF7FEBFFFF7FEBFFFF7FEBF94
:10208000FFF7FEBFFFF7FEBFFFF7FEBFFFF7FEBF84
:10209000FFF7FEBFFFF7FEBFFFF7FEBFFFF7FEBF74
:1020A000FFF7FEBFFFF7FEBFFFF7FEBFFFF7FEBF64
:1020B000FFF7FEBFFFF7FEBFFFF7FEBFFFF7FEBF54
:1020C000FFF7FEBFFFF7FEBFFFF7FEBFFFF7FEBF44
:1020D000FFF7FEBFFFF7FEBFFFF7FEBFFFF7FEBF34
:1020E000FFF7FEBFFFF7FEBFFFF7FEBFFFF7FEBF24
:1020F000FFF7FEBFFFF7FEBFFFF7FEBFFFF7FEBF14
:10210000FFF7FEBFFFF7FEBFFFF7FEBFFFF7FEBF03
:10211000FFF7FEBFFFF7FEBFFFF7FEBFFFF7FEBFF3
:08212000FFF7FEBFFFF7FEBF51
:04000005080020359A
:00000001FF
